:100000000C9465000C948D000C948D000C948D0064
:100010000C948D000C948D000C948D000C948D002C
:100020000C948D000C948D000C948D000C948D001C
:100030000C948D000C948D000C948D000C948D000C
:100040000C94F4070C948D000C94C4090C94120ABF
:100050000C948D000C948D000C948D000C948D00EC
:100060000C9401060C948D00000000002400270071
:100070002A0000000000250028002B0000000000DE
:1000800023002600290004040404040404040202DA
:100090000202020203030303030301020408102007
:1000A0004080010204081020010204081020000012
:1000B0000007000201000003040600000000000029
:1000C00000001001F7047E0B090111241FBECFEFC1
:1000D000D8E0DEBFCDBF14E0A0E0B1E0E8E8F7E291
:1000E00002C005900D92A434B107D9F715E0A4E43D
:1000F000B4E001C01D92A23DB107E1F710E0C8ECE9
:10010000D0E004C02297FE010E94AB13C23CD1078D
:10011000C9F70E94D40B0C94B7130C9400001F93E2
:10012000FC0199278827BC01E89411911032E9F36A
:10013000193010F01E30C8F31B3251F01D3249F453
:10014000689406C00E94CF00610F711D811D911D32
:10015000119110531A30B0F33EF49095809570953C
:1001600061957F4F8F4F9F4F1F910895FB01DC01D9
:1001700002C001900D9241505040D8F70895FB0104
:10018000DC018D91019080190110D9F3990B08952C
:10019000FB01DC0101900D920020E1F70895592F39
:1001A000482F372F262F660F771F881F991F660F3E
:1001B000771F881F991F620F731F841F951F660F7B
:1001C000771F881F991F089581309105A1F46F5FF3
:1001D0007F4FF1F484E494E060E071E00E94980EB7
:1001E00083E594E064E071E00E94980E8AE594E073
:1001F0000E94B0070895892B59F46F5F7F4F41F437
:1002000083E594E00E94350F84E494E00E94350F6A
:10021000089580E090E06FEF7FEF0E94E400089582
:1002200081E090E06FEF7FEF0E94E4000895882363
:1002300031F080911B0460E00E946F090895809165
:100240001B0461E00E946F0962E070E080E090E0D2
:100250000E943C0808958091130460E00E946F0999
:1002600008958091170460E00E946F090E942B019D
:1002700008958091130461E00E946F0908958091B0
:10028000170460E00E946F090E94390108950F93DE
:100290001F93EAE7F0E080818460808380818D7F16
:1002A000808380818E7F8083E1E8F0E08081887F99
:1002B000816080838091130461E00E943009809105
:1002C000150461E00E9430098091170461E00E94EA
:1002D00030098091190461E00E94300980911B046B
:1002E00061E00E94300981E00E9417018CE0809358
:1002F000B8008AE594E060E60E94B1070CEA15E0D8
:10030000C80140E855E260E070E00E944D0AC80173
:1003100067E071E00E943C0DC80166E371E00E9455
:10032000390DC80164E474E00E94820DC80160E4E4
:1003300071E00E943C0D1F910F9108950F931F9340
:100340008C010E9439018091150460E00E946F09C0
:1003500080911704B8010E94D0081F910F91089551
:1003600080E090E00E949E010E94310181E00E94A5
:1003700017018091190460E00E946F0908950F939E
:100380001F938C010E9439018091150461E00E9445
:100390006F0980911704B8010E94D0081F910F9136
:1003A0000895CF92DF92EF92FF920F931F93DF9306
:1003B000CF93CDB7DEB765970FB6F894DEBF0FBE0B
:1003C000CDBF8CEA95E00E94D40A18161906ECF409
:1003D00083E594E066E471E00E94B20E0FC08CEAFF
:1003E00095E00E94050B682F83E594E00E94520E71
:1003F0006AE070E080E090E00E943C088CEA95E0C2
:100400000E94D40A1816190654F38E010F5F1F4F6D
:10041000C80163E574E041E050E00E94120FC8019A
:100420000E94A70D60934D0470934E0480934F0477
:1004300090935004C8010E94350FCE01089663E5E1
:1004400074E041E050E00E94120F8C859D85029778
:1004500010F410E00BC010E080914D0490914E0418
:10046000A0914F04B0915004B7FD11E0CE01089661
:100470000E94350F112361F08FEF9FE0A0E0B0E004
:1004800080934D0490934E04A0934F04B093500476
:100490008E01015F1F4FC80163E574E040E050E04A
:1004A00021E030E00E94CB0E83E594E0B8010E9489
:1004B0001E0FC8010E94350F83E594E00E94B80D1D
:1004C00083E594E067E471E00E94CC0D8823D1F1CC
:1004D00060E080914B04882309F461E060934B0451
:1004E0008CEA95E04AE050E00E94BC0C83E594E081
:1004F00066E471E00E94B20E80914B04882309F4F7
:10050000EEC18CEA95E069E471E00E94390D4091FA
:100510004D0450914E0460914F04709150048CEA48
:1005200095E02AE030E00E94DA0C8CEA95E062E582
:1005300071E00E94390D8CEA95E063E574E00E9459
:10054000820DCDC183E594E06AE571E00E94CC0D97
:10055000882309F497C060914D0470914E048091F6
:100560004F04909150040E94511220E030EA4AEA70
:1005700054E40E94051320E030E04AE754E40E946E
:10058000B6117B018C0120E030E040E050E00E9499
:10059000011388234CF0C801B70120E030E040E0AF
:1005A0005FE30E94521108C0C801B70120E030E0AB
:1005B00040E05FE30E9451110E941E1297FF03C0AA
:1005C00060E070E042C0C801B70120E030E040E0E8
:1005D00050E00E94011388234CF0C801B70120E0CD
:1005E00030E040E05FE30E94521108C0C801B7014B
:1005F00020E030E040E05FE30E9451110E941E12B3
:1006000060507041804090401CF06FEF7FE01DC053
:10061000C801B70120E030E040E050E00E94011343
:1006200088234CF0C801B70120E030E040E05FE3F0
:100630000E94521108C0C801B70120E030E040E03C
:100640005FE30E9451110E941E1270935204609346
:10065000510480914B04882381F08CEA95E06CE58D
:1006600071E00E94390D60915104709152048CEA3E
:1006700095E04AE050E00E941A0D8CEA95E066E6AB
:1006800071E02BC183E594E068E671E00E94CC0D37
:10069000882309F455C080E00E94170181E080930F
:1006A0004C048091190461E00E946F0980914D040F
:1006B00090914E04A0914F04B0915004B7FD18C022
:1006C0007C018D018FEFE816F1040105110531F071
:1006D0002CF09FEFE92EF12C012D112D6701E11473
:1006E000F10431F00E943901C7010E94BF0104C02A
:1006F0000E943F01CC24DD2480914B04882309F41F
:1007000054C080914C04813091F48CEA95E06AE603
:1007100071E00E94390D8CEA95E0B6014AE050E0A4
:100720000E941A0D8CEA95E067E771E006C0882305
:10073000E1F58CEA95E065E871E00E943C0D35C07A
:1007400083E594E064E971E00E94CC0D8823A1F177
:1007500080E00E94170181E080934C04809119048D
:1007600061E00E946F0980914D0490914E04A09128
:100770004F04B0915004B7FD16C07C018D018F3F2E
:100780009105A105B10539F034F08FEFE82EF12C79
:10079000012D112D02C0009731F00E943901C701CF
:1007A0000E949E0102C00E943F0183E594E066E43E
:1007B00071E00E94B20E93C083E594E066E971E0B7
:1007C0000E94CC0D882319F00E94310188C083E576
:1007D00094E068E971E00E94CC0D882329F00E9422
:1007E000B00110924C047BC083E594E06AE971E0AB
:1007F0000E94CC0D882309F472C08CEA95E066E46F
:1008000071E00E943C0D8CEA95E06CE971E00E9479
:100810003C0D8CEA95E062EC71E00E943C0D8CEAA4
:1008200095E068EE71E00E94390D8CEA95E064E491
:1008300074E00E944F0D8CEA95E06EEF71E00E942B
:100840003C0D8CEA95E06CE971E00E943C0D8CEA6D
:1008500095E066E471E00E943C0D8CEA95E06CE066
:1008600072E00E943C0D8CEA95E066E471E00E9423
:100870003C0D8CEA95E06EE172E00E943C0D8CEA42
:1008800095E06EE372E00E943C0D8CEA95E066E430
:1008900071E00E943C0D8CEA95E060E872E00E94F5
:1008A0003C0D8CEA95E061EA72E00E943C0D8CEA16
:1008B00095E06BE073E00E943C0D8CEA95E06CE6FD
:1008C00073E00E943C0D8CEA95E06BE973E00E94B6
:1008D0003C0D8CEA95E06BEE73E00E943C0D80913C
:1008E0004B04882361F18091570490915804892B1F
:1008F00031F18CEA95E06FEE73E00E94390D609162
:100900001104709112048CEA95E04AE050E00E94D4
:100910001A0D8CEA95E06CEF73E00E94390D60913E
:100920005104709152048CEA95E04AE050E00E9434
:100930001A0D83E594E066E471E00E94B20E6091C6
:100940005104709152048AE594E040E00E94B80797
:1009500083E594E066E471E00E94B20E65960FB6FE
:10096000F894DEBF0FBECDBFCF91DF911F910F91E5
:10097000FF90EF90DF90CF90089581E08093A004E6
:1009800060937D0410929E0410929F04089520911C
:100990007C0430E080917B04281B3109C901089553
:1009A00040917B0480917C04481718F02FEF3FEFB3
:1009B0000AC0E42FF0E0E55AFB4F8081282F30E099
:1009C0004F5F40937B04C9010895E0917B048091BF
:1009D0007C04E81718F0EFEFFFEF06C0F0E0E55AEF
:1009E000FB4F8081E82FF0E0CF0108950895109229
:1009F000A4041092A30488EE93E0A0E0B0E08093FA
:100A0000A5049093A604A093A704B093A80487E23A
:100A100094E09093A2048093A1040895CF92DF9272
:100A2000EF92FF920F931F93CF93DF937C016B01A3
:100A30008A018091A0048823A1F0C0E0D0E00DC01D
:100A4000D701ED91FC91D601AC0FBD1F0190F08153
:100A5000E02DC7016C9109952196C017D10780F34D
:100A600004C0CB01642F0E94E605C801DF91CF913D
:100A70001F910F91FF90EF90DF90CF900895DF933B
:100A8000CF930F92CDB7DEB7FC0169838091A004AC
:100A90008823C9F080919F04803238F081E090E093
:100AA0009383828320E030E015C080919E04E82F7C
:100AB000F0E0E258FB4F998190838F5F80939E0412
:100AC00080939F0405C0CE01019661E00E94E60577
:100AD00021E030E0C9010F90CF91DF9108950F938D
:100AE000062F80917D046EE774E040919F0421E021
:100AF0000E94910510929E0410929F041092A004EF
:100B00000F91089561E00E946F05089510927B0493
:100B100010927C0410929E0410929F040E949207EF
:100B200008950F931F93582F122F413210F081E038
:100B30004AC08091AD048823E1F782E08093AD0440
:100B40000093AF048FEF80931A051092D504409361
:100B5000D604A5EBB4E0FB0102C081918D938E2FEA
:100B6000861B8417D0F31092AE048091AE04550F0B
:100B7000852B8093AE048091B004813041F41092B3
:100B8000B0048091AE048093BB0085EC01C085EE7B
:100B90008093BC00112321F08091AD048230E1F3F9
:100BA00080911A058F3F11F480E00DC080911A05E5
:100BB000803211F482E007C080911A05803311F071
:100BC00084E001C083E01F910F910895482F6132A6
:100BD00010F081E008958091AD04843011F082E03E
:100BE00008956093F804A7EDB4E0842F9C01F90107
:100BF00002C081918D938E2F841B8617D0F380E0E5
:100C000008951F920F920FB60F9211242F933F93C6
:100C10004F935F936F937F938F939F93AF93BF9304
:100C2000EF93FF938091B90090E0887F90708036B9
:100C3000910509F4F2C081369105CCF58832910511
:100C400009F47BC089329105B4F48031910509F42F
:100C50006FC0813191053CF4009709F447C10897B2
:100C600009F04FC165C08831910509F466C08097CD
:100C700009F047C182C08034910509F4A4C08134D1
:100C8000910544F48033910509F482C0C89709F0B6
:100C900038C189C08035910509F489C0883591052E
:100CA00009F496C08834910509F02BC1AEC088398B
:100CB000910509F413C189399105ECF48837910540
:100CC00009F4ABC0893791054CF48836910509F4D5
:100CD000A4C08037910509F014C19FC088389105E0
:100CE00009F4FCC08039910509F49DC08038910554
:100CF00009F007C198C0803B910509F4C6C0813B4B
:100D000091054CF4803A910509F49FC0883A910509
:100D100009F0F7C0BAC0803C910509F4E3C0883CF3
:100D2000910509F4DFC0883B910509F0EAC0C2C013
:100D30008091AE048093BB00CFC09091D504809188
:100D4000D604981768F49091D504E92FF0E0EB549D
:100D5000FB4F80818093BB009F5F9093D504BCC004
:100D60008091AF04882309F44BC085ED8093BC00CB
:100D70008091BC0084FDFCCFC2C080E280931A0544
:100D800085ED8093BC008091BC0084FDFCCFB7C092
:100D900080E380931A0585ED8093BC008091BC00B0
:100DA00084FDFCCFACC088E380931A059BC0809182
:100DB000D5049091BB00E82FF0E0EB54FB4F9083FB
:100DC0008F5F8093D5049091D5048091D60482C022
:100DD0008091D5049091BB00E82FF0E0EB54FB4FDD
:100DE00090838F5F8093D5048091AF04882341F076
:100DF00085ED8093BC008091BC0084FDFCCF7FC05A
:100E000081E08093B00484EA6EC085ED8093BC00DD
:100E10008091BC0084FDFCCF72C083E08093AD0460
:100E20001092190559C080911905803208F056C0FA
:100E3000809119059091BB00E82FF0E0E750FB4F3F
:100E400090838F5F8093190547C080911905803288
:100E500030F4E0911905F0E0E750FB4F108285ED8A
:100E60008093BC008091BC0084FDFCCF1092AD0447
:100E700060911905E091B304F091B40489EF94E016
:100E800070E00995109219052DC084E08093AD049F
:100E90001092F7041092F804E091B104F091B204BA
:100EA00009958091F804882329F481E08093F8045F
:100EB0001092D7049091F704E92FF0E0E952FB4F2C
:100EC00080818093BB009F5F9093F7049091F7041B
:100ED0008091F804981710F485EC01C085E88093A0
:100EE000BC000FC085EC8093BC0009C010921A05AD
:100EF00085ED8093BC008091BC0084FDFCCF1092F6
:100F0000AD04FF91EF91BF91AF919F918F917F9130
:100F10006F915F914F913F912F910F900FBE0F9066
:100F20001F9018951092AD0481E08093AF04109249
:100F3000B00482E161E00E946F0983E161E00E94F8
:100F40006F09E9EBF0E080818E7F808380818D7F67
:100F5000808388E48093B80085E48093BC00089582
:100F60000895FC01608381EA94E00E94860508955B
:100F70000F931F93CF93DF93FC01EB01142F00918C
:100F8000B8008CE08093B80081EA94E060810E9410
:100F9000BD04112321F081EA94E060E603C081EAF8
:100FA00094E068E50E943F05BE0194E07695679560
:100FB0009A95E1F781EA94E00E943F0584E0CC0F26
:100FC000DD1F8A95E1F7D07081EA94E06C2F0E94D2
:100FD0003F0581EA94E00E9482050093B800DF910A
:100FE000CF911F910F9108951F920F920FB60F92FC
:100FF00011242F933F938F939F93AF93BF9380912F
:101000001F0590912005A0912105B09122053091F6
:1010100023050196A11DB11D232F2D5F2D3720F033
:101020002D570196A11DB11D2093230580931F0507
:1010300090932005A0932105B093220580911B0574
:1010400090911C05A0911D05B0911E050196A11D52
:10105000B11D80931B0590931C05A0931D05B093B3
:101060001E05BF91AF919F918F913F912F910F904E
:101070000FBE0F901F9018959B01AC017FB7F8949D
:1010800080911B0590911C05A0911D05B0911E0536
:1010900066B5A89B05C06F3F19F00196A11DB11D53
:1010A0007FBFBA2FA92F982F8827860F911DA11DCA
:1010B000B11D62E0880F991FAA1FBB1F6A95D1F767
:1010C000BC012DC0FFB7F89480911B0590911C05C1
:1010D000A0911D05B0911E05E6B5A89B05C0EF3F88
:1010E00019F00196A11DB11DFFBFBA2FA92F982F8E
:1010F00088278E0F911DA11DB11DE2E0880F991F59
:10110000AA1FBB1FEA95D1F7861B970B885E9340F9
:10111000C8F2215030404040504068517C4F21156A
:1011200031054105510571F60895789484B58260C2
:1011300084BD84B5816084BD85B5826085BD85B57B
:10114000816085BDEEE6F0E0808181608083E1E82A
:10115000F0E0108280818260808380818160808362
:10116000E0E8F0E0808181608083E1EBF0E0808165
:1011700084608083E0EBF0E0808181608083EAE737
:10118000F0E08081846080838081826080838081C0
:10119000816080838081806880831092C10008957F
:1011A0001F93CF93DF93182FEB0161E00E9430096A
:1011B000209709F44AC0CF3FD10509F449C0E12F77
:1011C000F0E0E255FF4F84918330C1F0843028F481
:1011D000813051F08230B1F50CC0863019F1873082
:1011E00049F1843079F514C084B5806884BDC7BDE9
:1011F00033C084B5806284BDC8BD2EC0809180009C
:10120000806880938000D0938900C093880024C0B8
:1012100080918000806280938000D0938B00C09387
:101220008A001AC08091B00080688093B000C0939B
:10123000B30012C08091B00080628093B000C09370
:10124000B4000AC0C038D1051CF4812F60E002C090
:10125000812F61E00E946F09DF91CF911F91089566
:10126000CF93DF93482F50E0CA0186569F4FFC0171
:1012700034914A575F4FFA018491882369F190E0D5
:10128000880F991FFC01E859FF4FA591B491FC010B
:10129000EE58FF4FC591D491662351F42FB7F894BF
:1012A0008C91932F909589238C93888189230BC0EF
:1012B000623061F42FB7F8948C91932F9095892325
:1012C0008C938881832B88832FBF06C09FB7F894A7
:1012D0008C91832B8C939FBFDF91CF910895482FE2
:1012E00050E0CA0182559F4FFC012491CA018656E5
:1012F0009F4FFC0194914A575F4FFA013491332379
:1013000009F440C0222351F1233071F0243028F435
:101310002130A1F0223011F514C02630B1F0273071
:10132000C1F02430D9F404C0809180008F7703C0CD
:10133000809180008F7D8093800010C084B58F776E
:1013400002C084B58F7D84BD09C08091B0008F77C5
:1013500003C08091B0008F7D8093B000E32FF0E058
:10136000EE0FFF1FEE58FF4FA591B4912FB7F894E1
:10137000662321F48C919095892302C08C91892B4E
:101380008C932FBF089508951F920F920FB60F925E
:1013900011242F933F934F938F939F93EF93FF933A
:1013A0008091C00082FD1DC04091C600209164055F
:1013B000309165052F5F3F4F2F7330708091660528
:1013C000909167052817390771F0E0916405F09155
:1013D0006505EC5DFA4F4083309365052093640505
:1013E00002C08091C600FF91EF919F918F914F9124
:1013F0003F912F910F900FBE0F901F901895E09185
:10140000B805F091B905E05CFF4F81919191208181
:101410003181821B930B8F739070892B11F00E9486
:10142000C30908951F920F920FB60F9211242F93A4
:101430003F938F939F93EF93FF932091A805309153
:10144000A9058091AA059091AB052817390731F4B9
:101450008091C1008F7D8093C10014C0E091AA05E6
:10146000F091AB05E859FA4F20818091AA0590913F
:10147000AB0501968F7390709093AB058093AA058E
:101480002093C600FF91EF919F918F913F912F91F3
:101490000F900FBE0F901F901895AF92BF92DF92E2
:1014A000EF92FF920F931F93CF93DF93EC017A019A
:1014B0008B01DD24403081EE580780E0680780E032
:1014C000780711F0DD24D39491E0A92EB12CEC899A
:1014D000FD89DD2069F0C50108A002C0880F991FB1
:1014E0000A94E2F7808360E079E08DE390E005C044
:1014F000108260E874E88EE190E0A80197010E94F4
:1015000087132150304040405040569547953795BD
:10151000279580E12030380720F0DD2011F0DD2410
:10152000D6CFE889F9893083EA89FB89208319A21B
:10153000EE89FF89408121E030E0C9010C8C02C0B6
:10154000880F991F0A94E2F7482B4083EE89FF89A0
:101550004081C9010D8C02C0880F991F0A94E2F7DF
:10156000482B4083EE89FF894081C9010E8C02C05F
:10157000880F991F0A94E2F7482B4083EE89FF8970
:1015800080810F8C02C0220F331F0A94E2F720954E
:1015900028232083DF91CF911F910F91FF90EF902F
:1015A000DF90BF90AF900895DC011C96ED91FC9107
:1015B0001D97E05CFF4F2191319180819181281B23
:1015C000390B2F733070C9010895DC011C96ED9121
:1015D000FC911D97E05CFF4F20813181E054F04089
:1015E000DF01AE5BBF4F8D919C9111972817390792
:1015F00019F42FEF3FEF07C08D919C91E80FF91F71
:101600008081282F30E0C9010895DC011C96ED91FE
:10161000FC911D97E05CFF4F20813181E054F04048
:10162000DF01AE5BBF4F8D919C9111972817390751
:1016300019F42FEF3FEF10C08D919C911197E80F97
:10164000F91F20818D919C91119701968F73907055
:1016500011969C938E9330E0C9010895DC01919618
:101660008C919197882339F05496ED91FC91559780
:10167000808186FFF9CF91961C920895CF93DF93D6
:10168000EC01EE85FF85E05CFF4F20813181E05465
:10169000F0402F5F3F4F2F733070DF01AE5BBF4FC5
:1016A0008D919C91119728173907D1F3E05CFF4F7A
:1016B00080819181E054F040E80FF91F6083EE854E
:1016C000FF85E05CFF4F31832083EE89FF89208115
:1016D00081E090E00F8C02C0880F991F0A94E2F716
:1016E000282B208381E089A3EC89FD898081806497
:1016F000808381E090E0DF91CF9108951092AF0553
:101700001092AE0588EE93E0A0E0B0E08093B005C3
:101710009093B105A093B205B093B30587E394E02D
:101720009093AD058093AC0584E295E09093B90564
:101730008093B80588E695E09093BB058093BA0541
:1017400085EC90E09093BD058093BC0584EC90E01F
:101750009093BF058093BE0580EC90E09093C10507
:101760008093C00581EC90E09093C3058093C205FF
:1017700082EC90E09093C5058093C40586EC90E0E0
:101780009093C7058093C60584E08093C80583E0E5
:101790008093C90587E08093CA0585E08093CB05D7
:1017A00081E08093CC050895CF93DF930E94950844
:1017B0000E944701CFEFD9E00E94D1012097E1F3C9
:1017C0000E94FF09F9CFCF92DF92EF92FF920F9321
:1017D0001F93CF93DF937C016B018A01C0E0D0E0BF
:1017E0000FC0D6016D916D01D701ED91FC91019073
:1017F000F081E02DC7010995C80FD91F0150104095
:101800000115110571F7CE01DF91CF911F910F9155
:10181000FF90EF90DF90CF900895EF92FF920F939B
:101820001F938C01DC01ED91FC910190F081E02D82
:101830006DE009957C01D801ED91FC910190F0815A
:10184000E02DC8016AE009959C012E0D3F1DC901DC
:101850001F910F91FF90EF900895CF93DF93EC01CC
:101860006115710519F420E030E00FC0DB010D9027
:101870000020E9F71197A61BB70BE881F9810280D8
:10188000F381E02DAD0109959C01C901DF91CF9154
:1018900008954F925F927F928F929F92AF92BF92E4
:1018A000CF92DF92EF92FF920F931F93DF93CF932C
:1018B000CDB7DEB7A1970FB6F894DEBF0FBECDBF90
:1018C0002C01742ECB01223008F42AE019A231E257
:1018D000C32ED12CCC0EDD1E822E9924AA24BB242B
:1018E000672D752FA50194010E94871379018A0144
:1018F000C801B701A50194010E946813472D461B3A
:101900000894C108D1084A3014F4405D01C0495C14
:10191000F6014083E114F1040105110521F07E2C4C
:101920005F2DC801DDCFC201B6010E942D0CA1962A
:101930000FB6F894DEBF0FBECDBFCF91DF911F91E0
:101940000F91FF90EF90DF90CF90BF90AF909F905E
:101950008F907F905F904F900895DC0121153105A5
:1019600041F4ED91FC910190F081E02D642F0995F7
:1019700008950E94490C0895CF92DF92EF92FF9252
:101980000F931F936C01E62E9A01FF2400E010E0F4
:10199000B801A7010E94AD0C8C01C6010E940D0C7C
:1019A000080F191FC8011F910F91FF90EF90DF9052
:1019B000CF900895CF92DF92EF92FF920F931F93F3
:1019C000CF93DF93EC016A017B012115310541F4CE
:1019D000E881F9810190F081E02D642F09951FC005
:1019E0002A303105D1F477FF17C0E881F9810190E1
:1019F000F081E02D6DE209958C0144275527BA014D
:101A00004C195D096E097F09CE012AE00E94490C3C
:101A10009801280F391F04C02AE00E94490C9C013C
:101A2000C901DF91CF911F910F91FF90EF90DF904F
:101A3000CF900895CF92DF92EF92FF920F931F9372
:101A40006C017B019A010027F7FC0095102FB8016B
:101A5000A7010E94DA0C8C01C6010E940D0C080F30
:101A6000191FC8011F910F91FF90EF90DF90CF9049
:101A700008950E942D0C0895EF92FF920F931F93EB
:101A80007C010E942D0C8C01C7010E940D0C080FD7
:101A9000191FC8011F910F91FF90EF900895AF9209
:101AA000BF92CF92DF92EF92FF920F931F93CF934B
:101AB000DF935C016B01EE24FF24C0E0D0E010C096
:101AC000D501ED91FC9100811181C601BE010E94FA
:101AD000960D682FC501F8010995E80EF91E2196AB
:101AE000F60184819581C817D90750F3C701DF91AA
:101AF000CF911F910F91FF90EF90DF90CF90BF900B
:101B0000AF900895EF92FF920F931F937C010E9474
:101B10004F0D8C01C7010E940D0C9C01200F311F3D
:101B2000C9011F910F91FF90EF900895FC018481EE
:101B300095816817790748F40190F081E02D30977E
:101B400021F0E60FF71F8081089580E00895FC01E1
:101B500080819181009729F420E030E040E050E05E
:101B600004C00E948F009B01AC01B901CA01089515
:101B7000CF93DF93FC01C081D181209739F409C054
:101B8000992787FD90950E94AF13899388818823B8
:101B9000B9F7DF91CF910895DC01FB0114968D9187
:101BA0009C911597892B31F461157105A9F090E08E
:101BB000808108C00D90BC91A02D6115710529F49C
:101BC00090E08C91882349F407C0CD010E94BF00AA
:101BD0009C0190E0232B09F491E0892F08950F9345
:101BE0001F93CF93DF93EC018B016F5F7F4F888151
:101BF00099810E947010009711F480E005C09983CC
:101C000088831B830A8381E0DF91CF911F910F911D
:101C10000895CF93DF93EC0188819981892B29F076
:101C20008A819B818617970760F4CE010E94EF0D91
:101C3000882341F08C819D81892B19F4E881F981F9
:101C4000108281E0DF91CF910895EF92FF920F9380
:101C50001F93CF93DF93EC017B016C817D81E114B5
:101C6000F104C1F04115510599F08A01060F171FC3
:101C7000B8010E94090E882369F0888199812C811E
:101C80003D81820F931FB7010E94C8001D830C8302
:101C900081E001C080E0DF91CF911F910F91FF9013
:101CA000EF900895DF93CF9300D0CDB7DEB769836F
:101CB0001A82BE016F5F7F4F41E050E00E94250E07
:101CC0000F900F90CF91DF910895CF93DF93EC01A8
:101CD00088819981009711F00E94D80F198218828B
:101CE0001D821C821B821A82DF91CF910895EF9290
:101CF000FF920F931F93CF93DF93EC017B018A0137
:101D0000BA010E94090E882321F4CE010E94650EBB
:101D100007C01D830C8388819981B7010E94C80088
:101D2000CE01DF91CF911F910F91FF90EF90089519
:101D3000CF93DF93EC01198218821B821A821D82D5
:101D40001C821E826115710551F0DB010D9000208F
:101D5000E9F71197A61BB70BAD010E94770EDF9133
:101D6000CF9108950F931F93182F092F61157105B7
:101D700059F0DB010D900020E9F71197A61BB70B76
:101D8000AD010E94770E02C00E94650E812F902F38
:101D90001F910F910895BF92CF92DF92EF92FF9221
:101DA0000F931F93CF93DF93082FB92E6B017A0106
:101DB000E9012417350710F4EA017901802F9B2DE2
:101DC00060E174E00E94980ED60114968D919C916A
:101DD00015978E159F05D0F08C179D0708F4EC0120
:101DE000D601ED91FC911197EC0FFD1F108110822F
:101DF0006D917C916E0D7F1D802F9B2D0E94B20EE8
:101E0000D601ED91FC91EC0FFD1F1083802F9B2DCF
:101E1000DF91CF911F910F91FF90EF90DF90CF90C6
:101E2000BF9008950F931F938C01FB01248135818E
:101E30000E94CB0EC8011F910F910895CF93DF939D
:101E4000EC01FB018617970761F0608171816115D4
:101E5000710529F0448155810E94770E02C00E94CD
:101E6000650ECE01DF91CF910895FC0180819181B3
:101E70000E94D80F08950F931F93CF93DF93BC0157
:101E80008230910510F462E070E0E091D005F091AD
:101E9000D10540E050E0A0E0B0E024C08081918115
:101EA00086179707D0F08617970771F48281938180
:101EB000109729F013969C938E9312972CC09093B1
:101EC000D1058093D00527C04115510519F084171D
:101ED000950718F48D01AC01EF01DF018281938138
:101EE0009C01F9013097D1F641155105F9F0CA016D
:101EF000861B970B8430910580F48A819B810115A4
:101F0000110521F0F8019383828304C09093D105D9
:101F10008093D005FE01329645C0FE01E80FF91FFF
:101F2000619371930297998388833CC08091CE0519
:101F30009091CF05892B41F480911F04909120044A
:101F40009093CF058093CE054091210450912204B7
:101F50004115510541F44DB75EB780911D04909134
:101F60001E04481B590B2091CE053091CF05241734
:101F70003507B0F4CA01821B930B8617970780F0D0
:101F8000AB014E5F5F4F8417950750F0420F531F10
:101F90005093CF054093CE05F9016193719302C030
:101FA000E0E0F0E0CF01DF91CF911F910F91089514
:101FB000CF93DF939C01009709F48FC0EC01229727
:101FC0001B821A826091D0057091D105611571054F
:101FD00081F488819981820F931F2091CE053091E1
:101FE000CF052817390739F5D093CF05C093CE0513
:101FF00074C0DB0140E050E0AC17BD0708F1BB83C3
:10200000AA83FE0121913191E20FF31FAE17BF07A2
:1020100079F48D919C911197280F391F2E5F3F4FB6
:102020003983288312968D919C9113979B838A8381
:102030004115510571F4D093D105C093D0054DC021
:1020400012968D919C911397AD01009711F0DC01D0
:10205000D3CFDA011396DC93CE931297FA01219134
:102060003191E20FF31FCE17DF0769F48881998160
:10207000280F391F2E5F3F4FFA01318320838A8159
:102080009B8193838283E0E0F0E0DB0112968D91E7
:102090009C911397009719F0BC01FD01F6CFAB019D
:1020A0004E5F5F4FDB018D919C91840F951F2091B6
:1020B000CE053091CF052817390779F4309729F4E8
:1020C0001092D1051092D00502C0138212824250A4
:1020D00050405093CF054093CE05DF91CF910895A6
:1020E0006F927F928F929F92AF92BF92CF92DF9228
:1020F000EF92FF920F931F93CF93DF938C01009782
:1021000029F4CB010E943B0F8C01BBC08EEFE82E5F
:102110008FEFF82EE00EF11E4801860E971E8E14EA
:102120009F0408F4ACC0D7014D915C9111974617FC
:102130005707B8F04530510508F4A3C0CA01049709
:102140008617970708F49DC042505040461B570B16
:10215000F401419351936D937C93CF010E94D80F6A
:1021600090C05B01A41AB50A3801640E751EA091D7
:10217000D005B091D105E0E0F0E0CC24DD2447C0EB
:10218000A615B705A9F5CD91DC911197CE01029660
:102190008A159B0568F1CE018A199B090296129651
:1021A0002C91129713963C91059758F0F4012283D5
:1021B0003383CA19DB09D183C083D7016D937C9324
:1021C00009C04E5F5F4F4C0F5D1FF7015183408385
:1021D000C901FC01C114D10431F0D6011396FC935E
:1021E000EE9312974EC0F093D105E093D00549C00D
:1021F0008D919C911197E817F90708F4FC016D0186
:1022000012968C91129713969C919C01D90110976C
:1022100009F0B6CF8091CE059091CF058615970530
:10222000E9F4E617F707D0F4209121043091220455
:102230002115310541F42DB73EB780911D049091D1
:102240001E04281B390B82169306C8F49092CF0502
:102250008092CE05F7017183608313C0CB010E9489
:102260003B0FEC01009759F0D7014D915C91B801FB
:102270000E94B600C8010E94D80F8E0102C000E083
:1022800010E0C801DF91CF911F910F91FF90EF9067
:10229000DF90CF90BF90AF909F908F907F906F9086
:1022A00008955058BB27AA270ED071C162D130F0D3
:1022B00067D120F031F49F3F11F41EF457C10EF4A2
:1022C000E095E7FB4DC1E92F73D180F3BA176207A0
:1022D00073078407950718F071F49EF58BC10EF40F
:1022E000E0950B2EBA2FA02D0B01B90190010C0126
:1022F000CA01A0011124FF27591B99F0593F50F43E
:10230000503E68F11A16F040A22F232F342F442795
:10231000585FF3CF469537952795A795F04053958D
:10232000C9F77EF41F16BA0B620B730B840BBAF05D
:102330009150A1F0FF0FBB1F661F771F881FC2F7C8
:102340000EC0BA0F621F731F841F48F487957795DC
:102350006795B795F7959E3F08F0B3CF9395880F93
:1023600008F09927EE0F9795879508950CD00FC127
:1023700007D140F0FED030F021F45F3F19F0F0C0FB
:10238000511139C1F3C014D198F39923C9F35523DE
:10239000B1F3951B550BBB27AA2762177307840758
:1023A00038F09F5F5F4F220F331F441FAA1FA9F30E
:1023B00033D00E2E3AF0E0E830D091505040E69500
:1023C000001CCAF729D0FE2F27D0660F771F881F61
:1023D000BB1F261737074807AB07B0E809F0BB0B50
:1023E000802DBF01FF2793585F4F2AF09E3F510574
:1023F00068F0B6C000C15F3FECF3983EDCF3869511
:1024000077956795B795F7959F5FC9F7880F911DE9
:102410009695879597F90895E1E0660F771F881FD5
:10242000BB1F621773078407BA0720F0621B730B88
:10243000840BBA0BEE1F88F7E095089504D06894DA
:10244000B111D9C00895BCD088F09F5790F0B92F32
:102450009927B751A0F0D1F0660F771F881F991FF9
:102460001AF0BA95C9F712C0B13081F0C3D0B1E00B
:102470000895C0C0672F782F8827B85F39F0B93F1B
:10248000CCF3869577956795B395D9F73EF49095FB
:102490008095709561957F4F8F4F9F4F0895E89479
:1024A00009C097FB3EF490958095709561957F4F9C
:1024B0008F4F9F4F9923A9F0F92F96E9BB2793954A
:1024C000F695879577956795B795F111F8CFFAF45A
:1024D000BB0F11F460FF1BC06F5F7F4F8F4F9F4F8B
:1024E00016C0882311F096E911C0772321F09EE8E9
:1024F000872F762F05C0662371F096E8862F70E04F
:1025000060E02AF09A95660F771F881FDAF7880F28
:102510009695879597F90895990F0008550FAA0B7E
:10252000E0E8FEEF16161706E807F907C0F01216E6
:102530001306E407F50798F0621B730B840B950BE9
:1025400039F40A2661F0232B242B252B21F408953E
:102550000A2609F4A140A6958FEF811D811D0895DB
:1025600097F99F6780E870E060E008959FEF80EC46
:10257000089500240A9416161706180609060895E9
:1025800000240A9412161306140605060895092E4F
:102590000394000C11F4882352F0BB0F40F4BF2BBE
:1025A00011F460FF04C06F5F7F4F8F4F9F4F0895FE
:1025B00057FD9058440F551F59F05F3F71F04795F4
:1025C000880F97FB991F61F09F3F79F087950895D9
:1025D000121613061406551FF2CF4695F1DF08C0F8
:1025E000161617061806991FF1CF86957105610515
:1025F00008940895E894BB2766277727CB0197F9BD
:1026000008958ADF08F48FEF08950BD0C0CFB1DFB3
:1026100028F0B6DF18F0952309F0A2CFA7CF112438
:10262000EACFC6DFA0F3959FD1F3950F50E0551F79
:10263000629FF001729FBB27F00DB11D639FAA2717
:10264000F00DB11DAA1F649F6627B00DA11D661F66
:10265000829F2227B00DA11D621F739FB00DA11D87
:10266000621F839FA00D611D221F749F3327A00D41
:10267000611D231F849F600D211D822F762F6A2FDD
:1026800011249F5750408AF0E1F088234AF0EE0F62
:10269000FF1FBB1F661F771F881F91505040A9F76F
:1026A0009E3F510570F05CCFA6CF5F3FECF3983EA4
:1026B000DCF3869577956795B795F795E7959F5FD6
:1026C000C1F7FE2B880F911D9695879597F9089570
:1026D000629FD001739FF001829FE00DF11D649F06
:1026E000E00DF11D929FF00D839FF00D749FF00D92
:1026F000659FF00D9927729FB00DE11DF91F639F33
:10270000B00DE11DF91FBD01CF0111240895A1E213
:102710001A2EAA1BBB1BFD010DC0AA1FBB1FEE1F5B
:10272000FF1FA217B307E407F50720F0A21BB30BA6
:10273000E40BF50B661F771F881F991F1A9469F722
:1027400060957095809590959B01AC01BD01CF017E
:102750000895EE0FFF1F0590F491E02D099491115B
:10276000089581568A5108F480528558089510E0E2
:10277000C8ECD0E004C0FE010E94AB132296CA3C14
:08278000D107C9F7F894FFCF5F
:10278800302E35004848004C6F6164636F6E747278
:102798006F6C6C65722C204D6F746F7273776974EF
:1027A800636820616E6420436F6E74726F6C2E20B4
:1027B80052656164790056657273696F6E3A2000DC
:1027C8005265616479000044004E756D6265723A25
:1027D80020002C206D73673A20004900495F53653B
:1027E800745F493A20002E004D004D6F746F72736C
:1027F800706565643A20004D6F746F726D6F646523
:10280800204F6E2E004D6F746F726D6F6465204F90
:1028180066662E0042005200470048002B2B2B2BE7
:102828002B2B2B2B2B2B2B2B2B2B2B2B2B2B2B2BF0
:102838002B2B2B2B2B2B2B2B2B2B2B2B2B2B2B2BE0
:102848002B002B204C6F61642D20616E64204D6F2E
:10285800746F72636F6E74726F6C6C65722F2D7308
:102868007769746368202B002B204669726D657741
:102878006172652056657273696F6E3A2000202078
:10288800202020202020202020202B004848202005
:1028980020203A20546869732048656C7000202015
:1028A80020436F6D6D616E647320666F72204C6F8C
:1028B8006164636F6E74726F6C6C65723A0049780C
:1028C800787878203A205365747320746865206C92
:1028D8006F616420746F2074686520637572726517
:1028E8006E74207878787820696E206D41202830C1
:1028F800203C2078787878203C203330303029000C
:10290800202020436F6D6D616E647320666F7220A6
:102918004D6F746F72636F6E74726F6C6C65723A20
:10292800004D78787820203A206368616E67657377
:1029380020746F204D6F746F726D6F646520616EC7
:102948006420736574732061204D6F746F727370A7
:102958006565642056616C7565206F6620787878A7
:10296800205B2830203C20787878203C2032353590
:1029780029203D20302520746F2031303025204D0E
:102988006F746F7273706565645D00427878782043
:10299800203A2072657665727365732074686520C5
:1029A8004D6F746F7220616E642073657473206953
:1029B8007420746F2061207370656564206F6620D1
:1029C800787878202856616C75657320616E64206C
:1029D80072656D61726B73207468652073616D65D3
:1029E800206C696B65204D7878782900522020206A
:1029F80020203A2072656C65617365732074686580
:102A0800206272616B652C20737461797320696E22
:102A1800204D6F746F726D6F646500472020202011
:102A2800203A206368616E6765207374617465205D
:102A3800746F2047656E657261746F726D6F64653F
:102A48003B207365747320746865204D6F746F72D2
:102A5800636F6E74726F6C6C657220696E746F2030
:102A6800736C656570206D6F646500454F48005252
:102A78006573697374616E63653A20004375727299
:102A8800656E743A2000495F7365745F523A20009E
:102A980000C800080007000900050004008000D2F3
:102AA800050000000000003F050E05C704D004E53E
:102AB80004F604000000003E0BE30BD40A050BE506
:042AC8000A2E0B00C7
:00000001FF
